:100000000C941E050C943B050C943B050C943B058D
:100010000C943B050C943B050C943B050C943B0560
:100020000C943B050C943B050C943B050C943B0550
:100030000C943B050C943B050C943B050C943B0540
:100040000C943B050C943B050C943B050C943B0530
:100050000C943B050C943B050C943B050C943B0520
:100060000C943B050C943B050C943B050C943B0510
:1000700022080A0E2060040205060708090203038D
:100080000508020402040704070707070707070714
:100090000202070707080E090808080707090802EF
:1000A0000708070B0809070909070808090D0708C9
:1000B00008040404060803070706070705070702E4
:1000C0000306020A0707070705060507070B0607C9
:1000D0000505010507080000000000000000FEFE05
:1000E00018181E1E001E1E000000000090F89E90B2
:1000F000F89E1C00001C0000183C26FF66CC8804FB
:100100000C183C180C041C221CC0308E40800000CF
:100110001804000C100C80CC7E72F2DE0C80000CF7
:100120001C1010101C0C1C101E1E0000F0FC061CE5
:100130007CC006FCF0C07C1C14140E1414000000DB
:100140000000606060FCFC6060600000000C0C005F
:10015000000000005838C0C0C0C00000000000000F
:10016000181800C0380618040000F8FC0E060EFC33
:10017000F8040C1C181C0C04180CFEFE00001C1CBF
:10018000181C86C6663E1C181C1C18181818888C6B
:10019000062626FEDC040C1C18180C04C0E0B88CE3
:1001A000FEFE80040404041C1C04707E3E3636F6F9
:1001B000C60C1C1818180C04F8FC6E6666EECC040D
:1001C0000C1818181C0C060606E6761E0600001C05
:1001D0001C0000009CFE666666FE9C0C1C1818182D
:1001E0001C0C3C7E666666FCF80C1C18181C0C0483
:1001F00018181818181858386060F0F098980C0003
:1002000000000004040CD8D8D8D8D8D8D8000000F2
:10021000000000000C9898F0F060600C04040000EE
:100220000000080C06C6E6763C180000001818000E
:100230000000E03008C4F63A1A1AF2FA7E0408F018
:100240000C30604C9C98988C9C9C90484C2000C032
:10025000F8BE86BEF8C000181C04040404041C1870
:10026000FEFE66666666FEDC1C1C181818181C0C60
:10027000F8FC0E06060E9C08040C1C18181C0C0436
:10028000FEFE0606060EFCF81C1C1818181C0C04B2
:10029000FEFE66666666661C1C1818181818FEFEB8
:1002A00066666666061C1C0000000000F8FC0E0670
:1002B00006C6CEDCC8040C1C181818180C04FEFE68
:1002C00060606060FEFE1C1C000000001C1CFEFE46
:1002D0001C1C8080000000FEFE0C1C1818181C0C52
:1002E000FEFE603078EC86021C1C000000041C1826
:1002F000FEFE00000000001C1C1818181818FEFE56
:100300000E7CE000E07C0EFEFE1C1C00000C1C0CB1
:1003100000001C1CFEFE1C78E080FEFE1C1C000081
:10032000040C1C1CF8FC0E0606060EFCF8040C1C43
:100330001818181C0C04FEFE6666667E3C1C1C0029
:1003400000000000F8FC0E0686060EFCF8040C1CEB
:1003500018181C0C1C24FEFE6666E6E6BE1C001C7B
:100360001C0000000C1C18103C7E666666EECC0C6F
:100370001C1818181C0C060606FEFE0606060000D1
:10038000001C1C000000FEFE00000000FEFE040C2D
:100390001C18181C0C04021EFCE000E0FC1E0200ED
:1003A00000001C1C1C00000006FEF800F0FE0EFE03
:1003B000F000F8FE0600001C1C1C0000001C1C1CA9
:1003C0000000060EF8F0F80E06181C0400041C18B5
:1003D000060E38F0F0380E060000001C1C0000006D
:1003E000060686E6761E0E06181C1C181818181825
:1003F000FEFE0606FCFCC0C00638C0000000041863
:100400000606FEFEC0C0FCFC20380E0E38200000A0
:1004100000000000000000000000000080808080DC
:10042000808080800206040000001098D858F8F000
:10043000000C1C18180C1C10FEFE301838F0E01CC4
:100440001C0C181C0C04E0F018183830040C181898
:100450001C0CE0F0381830FEFE040C1C180C1C1CA0
:10046000E0F0D8D8D8F0E0040C181818180818FCD8
:10047000FE1A1A001C1C0000E0F0381830F8F8646E
:10048000ECDCD8CCFC7CFEFE301818F8F01C1C000C
:1004900000001C1CFAFA1C1C00FAFAC0FC7CFEFED0
:1004A000E0F098081C1C00041C18FEFE1C1CF8F848
:1004B0001018F8F01818F8F01C1C00001C1C0000A4
:1004C0001C1CF8F8301818F8F01C1C0000001C1C4C
:1004D000E0F0381838F0E0040C1C181C0C04F8F894
:1004E000301838F0E0FCFC0C181C0C04E0F0381854
:1004F00030F8F8040C1C180CFCFCF8F83018181C28
:100500001C00000070F8D8D8D890081818181C0CD7
:1005100018FCFE1818000C1C1818F8F8000000F859
:10052000F80C1C18180C1C1C38F8C000C0F8380057
:10053000001C1C1C000018F8E000F038F000E0F887
:100540001800001C1C0C000C1C1C00001838E0E0FB
:100550003818181C04041C1818F8E000E0F81800FB
:1005600084FCF83C04001898D878381C1C1818181B
:1005700080FC7E0606007CFCC0C0FEFC06067EFCFD
:1005800080C0C0FC7C0060303070606030000000D3
:1005900000000000FE020202020202FE1C10101007
:1005A0001010101C163A0A0B206003020206050701
:1005B00009010304020502030105050405040506FB
:1005C00005050505020305050504070707060807D5
:1005D00007070A05060907090A06070909060808A0
:1005E000080B0909070303040306020404040604B4
:1005F00006060403040603060404050504040404B3
:1006000006080705060301040506000000000000B7
:10061000803E000008060000A078AE782E0800009A
:1006200000000000808CF2BF6200200000001C92DD
:100630007E0CE290700000000000000070C8A8B8B6
:100640006CBE02C201000000000000200000080093
:10065000E018066080000000C33C402000000C0F42
:10066000000010107C1010000000000000804020EE
:10067000202020000000800000C0300C036000003B
:100680000000788482423C00000000008088FC86E4
:1006900000000000C0C4A2924E0000000000C08014
:1006A000DA76000000002030A87E02000000000082
:1006B0008080844A320200000000000070AC947216
:1006C000020000000000C4320A0602000000000020
:1006D000E0AC926A060000000000809C52721C0090
:1006E000000000008008000000800840200030303A
:1006F000484848000000000028282828280000005A
:100700000000484848303000000000008036120CDD
:100710000000000070CCB4AABA621C000000000007
:10072000000000804C322EFE8220000000000000FD
:10073000382486FA8E8A7600000000000000F08CD3
:100740000402820C002020200000384C86EA9A82A5
:10075000463C00000000000000003884E29E92BA8F
:10076000C6000000000000001C86E29E123A06004F
:10077000000000000000708C8482D232160080805D
:10078000C0200000C08CC23A1690F8860103000019
:10079000000000000000000080C0FA060200000017
:1007A000000000000CC23A066040402000008C822D
:1007B000F21E78880602020000000000204040403F
:1007C00080C0B8848282C000000000000000809CCD
:1007D000621EF86090FC0E000000000000000000A7
:1007E000800CE2120EF0700C0202202000000000CB
:1007F0000000000078C48282463C00000000000037
:1008000038CC86FA92120C0000000000000078C478
:10081000828242261C00000000002060C0808040D0
:1008200038A486FA32D20C000000000000000060FC
:10083000404080000C92E20E0020202000001C8628
:1008400082F28E02020300000000000000000C7A19
:1008500086808040300F00000000000000000C0681
:10086000FE4220100C0300000000000000000C06F7
:10087000FE320804FE2010080700000000000000FF
:1008800000000000008040221EF4820101202000B0
:100890000000000000001C0482C6BC8C02020100A3
:1008A000000000000000000080C0A6928A86C200FE
:1008B00000000000000000F00FC0A00007FC800056
:1008C00000600000F10F80E000000402040000005E
:1008D0000000000000004040404040400102000095
:1008E000E090C8B800000000E09E49390000000018
:1008F000E090884800000000E09048F84E010000B9
:1009000000000000F0B0A858000000000090781629
:10091000010140200000000000E09088E818E0801D
:1009200080C06000E01ED1B900000000E038020085
:1009300000000090780280600000E03EE9190000AD
:10094000000000604040E09C42000000C838D03801
:10095000F098000000000000E818D0B80000000087
:10096000F088C8380000000088F8904838E080001F
:100970000000E09088E8180080C0A000C838100887
:1009800000000000C098E80800000000E89C8840D3
:1009900000000000E898E098000000001008F888C7
:1009A00060180000000000001008F88840F8403887
:1009B000000000000000000080D058F01008000087
:1009C0000000002040601018F0C038804020000077
:1009D00080D8A898D808000000000000A0D807E040
:1009E0008000FFE00000D12F80C020000808181010
:1009F000100000000000FF81818181FF00000000E5
:100A00000000687474703A2F2F7777772E617065C5
:100A1000746563682E64650A6D61696C746F3A6D04
:100A20006540617065746563682E6465004B533082
:100A30003130382D547265696265720011241FBE11
:100A4000CFEFD4E0DEBFCDBF11E0A0E0B1E0EEE833
:100A5000F8E102C005900D92A030B107D9F711E07E
:100A6000A0E0B1E001C01D92A930B107E1F70E94FA
:100A70003D050C94450C0C940000EF920F93DF930E
:100A8000CF9300D0CDB7DEB71A82198205C0898115
:100A90009A8101969A83898389819A812AE3883988
:100AA0009207A8F380E00E94D20980E790E06DE70A
:100AB00075E04FEF0E9480058FE06AE00E942306F8
:100AC0008DE29AE00E940B0885E065E045E724E1AD
:100AD00008E0EE24EA940E94FA0984EA95E06DE7C2
:100AE00075E04FEF0E94800585E06EE10E942306CD
:100AF00082E09AE00E940B08FFCFFC0184910895E8
:100B0000909308018093070170930601609305019B
:100B10004093010108950F931F93082F80910701BF
:100B200090910801E0910501F09106010496099564
:100B3000182F8091070190910801E0910501F09133
:100B40000601059609950117D0F0402F50E0212F9E
:100B500030E0280F311D421753078CF4011B10E0C1
:100B60000A5F1F4F8091070190910801E0910501F4
:100B7000F0910601800F911F09958F5F01C080E001
:100B80001F910F910895EF92FF920F931F93CF93B0
:100B9000DF938C01C0E0D0E006C00F5F1F4F0E94C2
:100BA0008B05C80FD11DF80180818823B1F7CE01D4
:100BB000DF91CF911F910F91FF90EF900895EF92E9
:100BC000FF920F931F93CF93DF938C01C0E0D0E08F
:100BD00008C00F5F1F4FF90184910E948B05C80F59
:100BE000D11D9801F8019491992399F7CE01DF91D5
:100BF000CF911F910F91FF90EF900895DF93CF93C6
:100C00000F92CDB7DEB7662319F4AC98AB9A04C047
:100C1000613011F4AB98AC9AA898A9989FEF94BB57
:100C200085BBAA9A000000000000AA98198203C0A0
:100C300089818F5F898389818830D0F315BA0F90BD
:100C4000CF91DF9108951F9387FD80E0603408F015
:100C500060E0809302016093030166956695669556
:100C600060930401803410F460E002C0805461E0BD
:100C700080640E94FE0510910401186B812F60E0D2
:100C80000E94FE05812F61E00E94FE051F910895DC
:100C90001F93DF93CF930F92CDB7DEB715BA14BA77
:100CA00090910201903418F4AC98AB9A0AC0AB98BA
:100CB000AC9A903431F4882321F080E461E00E9402
:100CC000FE05A89AA99AAA9A00000000000013B392
:100CD000AA98198203C089818F5F898389818830AE
:100CE000D0F38FEF84BB80910201609103010E94D9
:100CF00023068091000181111095812F0F90CF91D3
:100D0000DF911F910895DF92EF92FF920F931F934F
:100D1000DF93CF930F92CDB7DEB7182F80910201EA
:100D200087FD89C0803418F4AC98AB9A07C0AB98A3
:100D3000AC9A803419F461E00E94FE05A89AA99843
:100D40000FEF04BBE090030187E0E82209F45BC0E9
:100D5000D5B281E00E94480680E00E944806D5BADC
:100D600004BB012F10E0FF2498010E2C02C0220FBB
:100D7000331F0A94E2F7822B909100019111809524
:100D800085BBAA9A000000000000AA98198203C03F
:100D900089818F5F898389818830D0F360910301D5
:100DA000685F809102010E94230681E00E9448064C
:100DB00080E00E944806D5BA9FEF94BB28E030E05F
:100DC0002E193F0902C0159507952A95E2F7082BC1
:100DD000809100018111009505BBAA9A00000000D6
:100DE0000000AA98198203C089818F5F8983898155
:100DF0008830D0F3809102016091030168508F5FC9
:100E00000E94230617C0809100018111109515BB27
:100E1000AA9A000000000000AA98198203C08981E4
:100E20008F5F898389818830D0F3809102018F5F41
:100E30008093020115BA0F90CF91DF911F910F910E
:100E4000FF90EF90DF9008952F923F924F925F9224
:100E50006F927F928F929F92AF92BF92CF92DF92CA
:100E6000EF92FF920F931F93CF93DF93E82E809121
:100E7000070190910801E0910501F09106010396A8
:100E80000995882E8091070190910801E091050154
:100E9000F091060104960995F82E80910701909132
:100EA0000801E0910501F091060105960995D82EFB
:100EB000C090020170900301EF1408F496C02E2D2B
:100EC00030E08F2D90E08D0D911D281739070CF023
:100ED0008CC0EF18C6E0D0E000E010E006C08C0F38
:100EE0009D1F0995080F111D2196CE018650282FB0
:100EF0008091070190910801E0910501F0910601B0
:100F00002E1568F399249401295F3F4F43E03595EE
:100F100027954A95E1F7622E209FA001219F500D51
:100F2000309F500D11240D2D10E00A5F1F4F040F4C
:100F3000151F2E2D30E02A5F3F4F820F931F09951A
:100F4000F82EC8E0D0E0C819D90988E0A82EB12C45
:100F5000DD24EE243EC04C2E18012D0C311C5524EE
:100F600020C08091070190910801E0910501F09166
:100F70000601820D931D09958A149B043CF490E0B0
:100F8000042C02C0959587950A94E2F7909101018F
:100F90009F3F09F080950E94830653940894211C7A
:100FA000311C5F14F0F2809101018F3F11F480E059
:100FB00001C08FEF0E94830660910301685F8C2D52
:100FC0000E942306E394DF0C88E090E0A80EB91E8F
:100FD0002896E61408F4BFCF8C2D8F5F8F0D672DF8
:100FE0000E94230620E030E002C021E030E0C90189
:100FF000DF91CF911F910F91FF90EF90DF90CF90F5
:10100000BF90AF909F908F907F906F905F904F9028
:101010003F902F9008950F931F93CF93DF93EC0190
:101020001091020117C08A3091F400910301809160
:10103000070190910801E0910501F09106010396E6
:101040000995682F600F812F0E94230602C00E941D
:1010500024072196FE018491882329F7DF91CF91FF
:101060001F910F9108950F931F93CF93DF93EC017E
:101070001091020117C08A3091F400910301809110
:10108000070190910801E0910501F0910601039696
:101090000995682F600F812F0E94230602C00E94CD
:1010A000240721968881882331F7DF91CF911F9102
:1010B0000F9108951F93DF93CF930F92CDB7DEB7B3
:1010C000162F687F49830E94230681E00E9448060C
:1010D00080E00E944806982F212F30E049814F3F41
:1010E00061F4A9014770507021E030E002C0220F86
:1010F000331F4A95E2F7822B0DC0A901477050704B
:1011000021E030E002C0220F331F4A95E2F7822F20
:10111000809589230E9483060F90CF91DF911F91C4
:101120000895AF92BF92CF92DF92EF92FF920F930A
:101130001F93CF93DF93182F042FD22ED394862F93
:101140008770E62EE81ACD2DD0E0282F30E048E059
:1011500050E0BA01621B730BC617D7075CF44C1B37
:101160005D0B8FEF90E002C0959587954A95E2F769
:10117000FD2C04C058E0F52EF81A8FEF90E002C065
:10118000880F991F2A95E2F7C82E812F6E2D0E9495
:101190002306BB24AC2CA09481E00E94480680E08A
:1011A0000E944806982F90959C218A21892B0E94A5
:1011B0008306B3940B1580F715C028E0E20E812F4B
:1011C0006E2D0E942306CC2481E00E94480680E018
:1011D0000E94480680950E948306C3940C15A0F7D0
:1011E00038E0F30E8F2D90E09C01295F3F4F2C17C4
:1011F0003D071CF3FD1420F5C81BD90B8FEF90E0C1
:101200000C2E02C0880F991F0A94E2F7F82EF09472
:101210006E2D685F812F0E94230610E0EF2CE09472
:1012200081E00E94480680E00E944806982F909531
:101230009F218E21892B0E9483061F5F011780F753
:10124000DF91CF911F910F91FF90EF90DF90CF90A2
:10125000BF90AF9008951F93182F809100018117C0
:1012600041F080E060E04FE72FE30E949108109387
:1012700000011F9108959F92AF92BF92CF92DF928B
:10128000EF92FF920F931F93CF93DF93182FF42EBB
:10129000E22EC02EE394862F8770D62ED81ACE2D3C
:1012A000D0E0282F30E048E050E0BA01621B730B19
:1012B000C617D7075CF44C1B5D0B8FEF90E002C0A4
:1012C000959587954A95E2F70E2D03C008E0081B17
:1012D0008FEF90E002C0880F991F2A95E2F7B82E91
:1012E000812F6D2D0E942306AA249B2C909481E0CF
:1012F0000E94480680E00E9448062FEFC21611F4B3
:101300008B2901C089210E948306A394FA1478F7DF
:101310000EC038E0D30E812F6D2D0E942306BB2412
:101320008C2D0E948306B394FB14D0F7085F802FA6
:1013300090E09C01295F3F4F2C173D0754F30E1599
:1013400028F5C81BD90B8FEF90E00C2E02C0880F38
:10135000991F0A94E2F7082F00956D2D685F812F81
:101360000E94230610E0E02EE09481E00E944806EF
:1013700080E00E9448063FEFC31611F4802B01C0A5
:101380008E210E9483061F5FF11678F7DF91CF91BF
:101390001F910F91FF90EF90DF90CF90BF90AF9093
:1013A0009F9008950F9310920201109203011092E2
:1013B0000401809300018FEF84BB8FE360E00E9403
:1013C000FE058FE361E00E94FE0580EC60E00E9474
:1013D000FE0580EC61E00E94FE0580E060E04FE7E2
:1013E0002FE300E00E943B0980E060E00E942306BA
:1013F0000F9108952F923F924F925F926F927F923A
:101400008F929F92AF92BF92CF92DF92EF92FF9214
:101410000F931F93DF93CF93CDB7DEB72B970FB604
:10142000F894DEBF0FBECDBF382F162F542F2D835B
:10143000A02EBB24C501880F991F66277727681B3C
:10144000790B6D5F7F4F7B876A87D02ED30EF02E8E
:10145000F10E742F730F7C83701B7A83822F810FA0
:101460008B83801B8983582E672E7F2CCD2C2224C2
:101470003324882499244A2C9F2D9A198C2D692F66
:101480004E2D398758879E830E945A082D2D2A1980
:10149000822F672D4E2D2F830E945A08862D9E8104
:1014A000692F4E2D0E945A089A819A0D892F672D17
:1014B0004E2D9E830E945A08E9814E0E862D642D82
:1014C0004E2D0E945A089E81892F652D4E2D0E9417
:1014D0005A088C2D642D4E2D0E945A082F81822F80
:1014E000652D4E2D0E945A08398558856A857B8561
:1014F00077FF07C06A5F7F4F620D731D7B876A8726
:1015000015C08A859B850A969B878A87C4018A199C
:101510009B09880F991F880F991FEA85FB85E80FA3
:10152000F91FFB87EA870894A108B1080894811C79
:10153000911CCA947A946394539464E070E0260EEC
:10154000371EA814B9040CF096CFC02ECC0CC19451
:10155000AC2CA50E8D2D612F4A2D20E00E2D398744
:101560000E943B098D2D6B814A2D20E00E943B0992
:101570007D81C70E3985832F6F2D40E02C2D0E9471
:101580003B098C816F2D40E02C2D0E943B092B964E
:101590000FB6F894DEBF0FBECDBFCF91DF911F9184
:1015A0000F91FF90EF90DF90CF90BF90AF909F9002
:1015B0008F907F906F905F904F903F902F90089505
:1015C000CF92DF92EF92FF920F931F93E82EF62EA9
:1015D000C42ED22E20E00E943B096D2D6F0D8E2D62
:1015E0004C2D20E00E943B098E2D6F2D40E02D2DCB
:1015F0000E943B098C2D8E0D6F2D40E02D2D0E94F9
:101600003B091F910F91FF90EF90DF90CF900895CD
:101610004F925F926F927F928F929F92AF92BF9202
:10162000CF92DF92EF92FF920F931F93CF93DF93AE
:10163000182FF62ED42EE22EB02E841751F4261732
:1016400010F4F22EE62E2E2D2F19812F6F2D40E053
:101650000BC0621769F4481710F4142FD82E4D2DC3
:10166000411B812F6F2D20E00B2D0E943B09D5C01F
:1016700030E0462F50E08D2D90E0811B9109B9019B
:10168000641B750B6817790734F4421B530B48171A
:1016900059070CF461C0D11630F48F2DFE2CE82EC2
:1016A000812F1D2DD82EAD2CA11AEE2DF0E06F2C20
:1016B00077244F0186189708CA2DD0E088EC90E077
:1016C0009C01829EC001839E900D929E900D1124DC
:1016D000BE010E941E0C2B012F2DCC246E1A7F0AF6
:1016E0008C2D90E0849DF001859DF00D949DF00D72
:1016F0001124CF0168EC70E00E941E0CD62EDF0C86
:10170000CF0168EC70E00E941E0C8436910514F045
:10171000D39405C03FEF8D3993070CF4DA944C2D28
:10172000410F842F622F2D2D0B2D0E94080B8C163C
:101730009D062CF0FE1418F42D2D2F5F09C06C1699
:101740007D062CF0EF1418F42D2D215001C02D2D05
:10175000C394AC1428F661C0EF1430F48F2DFE2C26
:10176000E82E812F1D2DD82EAE2CAF18ED2DF0E0D8
:10177000612E77244F0186189708CA2DD0E088EC97
:1017800090E09C01829EC001839E900D929E900DE0
:101790001124BE010E941E0C2B01312FCC246E1A85
:1017A0007F0A8C2D90E0849DF001859DF00D949D25
:1017B000F00D1124CF0168EC70E00E941E0CE62EA3
:1017C000E10ECF0168EC70E00E941E0CAC01843683
:1017D000910514F0E39405C08FEF4D3958070CF4D0
:1017E000EA942C2D2F0D832F622F4E2D0B2D0E944E
:1017F000080B8C169D062CF01D1518F43E2D3F5F2E
:1018000009C06C167D062CF0D11618F43E2D31500F
:1018100001C03E2DC394AC1420F6DF91CF911F91EF
:101820000F91FF90EF90DF90CF90BF90AF909F907F
:101830008F907F906F905F904F90089597FB092E47
:1018400007260AD077FD04D00CD006D000201AF469
:10185000709561957F4F0895F6F7909581959F4F0C
:101860000895AA1BBB1B51E107C0AA1FBB1FA617E7
:10187000B70710F0A61BB70B881F991F5A95A9F739
:0E18800080959095BC01CD010895F894FFCF9E
:00000001FF
