:1000000010C02AC029C028C027C026C025C024C0CF
:1000100023C022C021C020C01FC01EC01DC01CC0E4
:100020001BC011241FBECFE5D2E0DEBFCDBF10E064
:10003000A0E6B0E0E8E2F6E002C005900D92A63836
:10004000B107D9F710E0A6E8B0E001C01D92AA38C8
:10005000B107E1F7F4D0E6C2D3CF80E291E0019797
:10006000F1F7DA9A80E798E00197F1F7DA9880E6FD
:1000700090E00197F1F70895893499F08A3468F097
:10008000893679F08F36A1F08F3491F08AB3807879
:100090008ABB8BB380788BBB0895803349F0813362
:1000A000A9F78AB380788ABB8BB38F678BBB08951F
:1000B0008AB38F678ABB8BB380788BBB08951F93FD
:1000C000DF93CF930F92CDB7DEB7182F8FE66983FA
:1000D000D3DF6981662341F5D898D9989BB3812FE6
:1000E00082958F70880F880F880F9778892B8BBB2C
:1000F000B4DFE0ECF2E13197F1F72BB3812F90E020
:100100008F709070880F991F880F991F880F991F03
:100110002778282B2BBBA1DF8AE7AEDF80E00F908A
:10012000CF91DF911F910895D89AD7CF81E060E0F9
:10013000C6DF089582E060E0C2DF0895805860E085
:10014000BEDF0895CF92DF92EF92FF920F931F933D
:10015000DF93CF9300D0CDB7DEB7F42E5A836983F7
:10016000EDDFEF2D5A81F52FDF010D900020E9F72B
:100170008D01015010400E1B1F0B6981E62E6D3062
:1001800010F14CE0E42E4F2D6A01F60181916F01D0
:1001900061E095DF8C2D8F198E15B8F30E1540F4A4
:1001A000E01A0E2D29F080E261E089DF0150D9F7D5
:1001B0000F900F90CF91DF911F910F91FF90EF90D3
:1001C000DF90CF9008956623F1F6F2CFCF93DF93BF
:1001D0001ABA1BBA80EF90E020E931E0F9013197BB
:1001E000F1F70197D9F78FE647DFD898D998DA98D1
:1001F0008BB3877888618BBB30DFC0ECD2E1CE0156
:100200000197F1F72ADFCE010197F1F726DFCE0142
:100210000197F1F78BB3877880618BBB1EDF219745
:10022000F1F78AE729DF88E260E049DF8CE060E0EF
:1002300046DF81E060E043DFDF91CF910895CF9208
:10024000DF92FF920F931F93DF93CF9300D0CDB730
:10025000DEB71ABA1BBA17BA18BAB89AB99ABA9AC4
:10026000C09A14BA15BA11BA12BA16B817B880E4FF
:100270009CE90197F1F7AADFC29A88EE93E020E9A2
:1002800031E0F9013197F1F70197D9F781E390E077
:1002900096D0082F192F81E390E091D089839A831B
:1002A000C09860E9C62E61E0D62EE981FA8180818E
:1002B000F80180833BDF3EDF88EE93E0F601319763
:1002C000F1F70197D9F750E3F52E8F2D61E0F7DEB6
:1002D00024EF31E0F6013197F1F721503040D1F7AA
:1002E000F394FF2DFC3389F7D801E0E6F0E08FE1CD
:1002F00001900D928150E1F780E420DF85E861E014
:10030000DEDE8AE01BDF84E861E0D9DE81E46AE0BA
:10031000A80118DF84EF91E0F6013197F1F701971A
:10032000D9F70F5F1F4FF8018081882379F784EF99
:1003300091E0F6013197F1F70197D9F75F9BFECF76
:10034000FCB08F2D61E0BBDE8F2D61E0B8DE982F11
:100350009D50933350F08D3418F080E060E0AFDEB4
:1003600080E49CE90197F1F7A0CF80E460E0A7DE8C
:10037000F7CF5F9BFECF8CB108955D9BFECF8CB90C
:10038000089561157105A9F062307105B4F09C0102
:1003900042E050E0F901E89F9001E99F300DF89F9D
:1003A000300D11244F5F5F4F641775079CF7C9012B
:1003B000089521E030E0C90108959C01F8CFCF9362
:1003C000DF938230910510F482E090E0E0918800A4
:1003D000F091890040E050E020E030E026C06081EC
:1003E000718168177907E0F06817790781F48281D5
:1003F00093812115310531F0D90113969C938E9389
:1004000012972BC0909389008093880026C04115D5
:10041000510519F06417750718F4AB01E901DF0104
:100420009F0172816381E72FF62F3097C1F6411546
:10043000510501F1481B590B4430510580F41296C7
:100440008D919C911397209719F09B838A8304C008
:100450009093890080938800FD01329646C0FD018B
:10046000E40FF51F819391934250504011965C9395
:100470004E933BC0209186003091870021153105B5
:1004800041F42091810030918200309387002093C5
:10049000860020918300309184002115310541F4BC
:1004A0002DB73EB740917F0050918000241B350B43
:1004B000E0918600F0918700E217F307A0F42E1B6D
:1004C0003F0B2817390778F0AC014E5F5F4F2417B8
:1004D000350748F04E0F5F1F50938700409386000A
:1004E0008193919302C0E0E0F0E0CF01DF91CF91E2
:1004F0000895CF93DF93009709F491C0FC013297E0
:1005000013821282609188007091890061157105D3
:1005100081F420813181280F391F809186009091CC
:1005200087008217930799F5F0938700E093860080
:1005300076C0DB0180E090E002C0CD01D901AE17AA
:10054000BF0748F412962D913C9113972115310560
:10055000A1F7CD0121C0B383A283EF014991599145
:100560009E01240F351FA217B30779F42D913C91FA
:100570001197240F351F2E5F3F4F31832083129632
:100580002D913C91139733832283009729F4F093A4
:100590008900E093880043C0DC011396FC93EE933E
:1005A00012974D915D91A40FB51FEA17FB0769F4EF
:1005B00020813181240F351F2E5F3F4FEC0139839D
:1005C0002883228133813B832A83E0E0F0E002C06C
:1005D000FB01BC01DB0112968D919C911397009752
:1005E000B9F79B012E5F3F4F8D919C911197820F20
:1005F000931F40918600509187004817590779F45E
:10060000309729F4109289001092880002C013825A
:100610001282225030403093870020938600DF9171
:08062000CF910895F894FFCF7B
:100628005465737420737472696E6721204D616418
:100638006564206279204E524E4444413B29002093
:06064800008A0000000022
:00000001FF
