:020000020000FC
:1000000074F4F0757906AF13E5129000FBF0A3EFDE
:10001000F0757902900047E060099000FDE4F090EF
:1000200000FEF0E56FFF7E00C3EF954EE54D648066
:10003000CE64809E501AC250D24F9000FE7401F0E0
:100040009000FDE060087579049000FDE4F0803BCD
:10005000E56FFF7E00C3E49FFFE49EFED3EF954E65
:10006000E54D6480CE64809E401AC24FD25090000D
:10007000FD7401F09000FEE060087579049000FEC8
:10008000E4F08007D24FD25075790602E18275798B
:10009000049000FBE0FEA3E0FFE513C39FFFE51221
:1000A0009E9000C3F0A3EFF09000C3E0FEA3E0FF3A
:1000B00012DD7EC3EF9405EE94004003757902AF24
:1000C0004EAE4D12DD7EE56FFB7A00C3EF9BEE9ADC
:1000D0005003757906900047E070119000C1E0FE72
:1000E000A3E09000F9CEF0A3EEF08017900046E078
:1000F000FFE4FEFD7BF47A011200E89000F9EEF0D7
:10010000A3EFF09000FDE06004C24F8002D24F9058
:1001100000FEE06004C2508002D2508065D250D20E
:100120004F805FAF4EAE4D12DD7EE56FFB7A00C3B0
:10013000EF9BEE9A40229000FEE06009E54D64805E
:10014000C3948040139000FDE0602AD3E54E9400F4
:10015000E54D64809480401DD250D24F9000F3E072
:10016000FEA3E09000F9CEF0A3EEF09000F3E4F0EF
:10017000A3F0757903800BD250D24F8005757901B9
:1001800080003051119000C1E0F534A3E0F5357FD7
:100190002812AF8EC25120330122C23312BE2E224A
:1001A000E57964036006E579640570147F027E00DA
:1001B0007D007C0079017A007BF59002A712076A26
:1001C000E57964026006E5796404700E9000F4E05D
:1001D0002402F09000F3E03400F0900049E0FFE4E6
:1001E000FEFDFC7BF47A017900780012016A900030
:1001F000F5E0F8A3E0F9A3E0FAA3E0FB740A120229
:100200007D701D9000F5E4F0A3F0A3F0A3F0E57974
:1002100064037003757901E57964057003757907E6
:100220009000F3E0FEA3E0FFC39000FAE09F90008F
:10023000F9E09E501D9000F3E4F0A3F0E57964022C
:100240007003757903E57964047003757905D250FC
:10025000D24FE56045617002D251A2509291A24FF7
:10026000929290005BE024E6F582E43400F583E0AE
:10027000139282228F498E48AF49E548FEE4FDFC87
:100280007B067A007900780012016A7B747A06791D
:100290000078001202A712AE8E900000EEF0A3EFDD
:1002A000F0900000E07E00540FFFE0FAA3E07B0C2A
:1002B000CAC313CA13DBF9540375F00AA42F9000C4
:1002C00002F0754500854A46754720D203E0FFE4F9
:1002D000FEFDFC1263FC900001E0540FFF90000053
:1002E000E0FAA3E07B04CAC313CA13DBF954077511
:1002F000F00AA42F900003F0754500E54A24FEF5AE
:1003000046754720D203E0FFE4FEFDFC1263FC20AB
:10031000040302E3C4900054E0FEA3E075F038A4A7
:10032000CEAFF075F038A42FCEFF7B3C7A001200E0
:10033000FD900000EEF0A3EFF0900000E0FEA3E0DF
:10034000FF7B3C7A0012013E900002E02FF090000B
:1003500000E0FEA3E0FF7B3C7A0012016190000305
:10036000E02FF0E0C3943C401A900003E075F03CAD
:1003700084FF900002E02FF0900003E075F03C84D1
:10038000E5F0F0900002E075F01884E5F0F07545B6
:1003900000754603754720D203E0FFE4FEFDFC1222
:1003A00063FC754500754601754720D20390000334
:1003B000E0FFE4FEFDFC1263FC753A00753B027F32
:1003C000F612A600753A00E54A14F53B7FF612A630
:1003D00000228F38853936E536D3953B501D853858
:1003E00037E537D3953A500F8537348536357F005A
:1003F00012E49D053780EA053680DC2292057537C8
:10040000807538087F0712A220D2527545017546C3
:1004100007900058E014F547900010E0FEA3E0FFBD
:10042000EE3395E0FDFC1262887545147546079021
:100430000058E014F547900012E0FEA3E0FFEE3311
:1004400095E0FDFC126288C252300510754A07D251
:10045000049000BBE0FEA3E0FF12E2747534007567
:1004600035067F0712A23C302D32754B08E54BC391
:1004700094815028753716AF4B12A17F753724AF82
:100480004B12A17F753732AF4B12A17F753740AF4A
:100490004B12A17FE54B240AF54B80D1228F33E527
:1004A00034E53433403CE535E535C394405033E51D
:1004B00034C39440400CD286C287E53424C0F5345E
:1004C0008004C286D287AF3412A01FAF3512A03786
:1004D000D283C2848533A0D297C297129FF1400283
:1004E00080F9228F337532009000FFE0FF74800F97
:1004F0008002C313DFFCF5327531009000FFE0D3BA
:1005000095314021E53124C5F582E43400F583E0DE
:100510006533700D7480AF310F8002C313DFFC426E
:1005200032053180D6AF32228F3B8E3A8D398C38EE
:100530007B007A7D79007800740512027D600302E9
:10054000E672E53DC3940A505FAF3BAE3AAD39ACBD
:10055000387B0A7A0079007800120265E53DFBE4F9
:10056000FAF9F8120234C007AF3BAE3AAD39AC38F5
:100570007B0A7A0079007800120234900010E0FAC9
:10058000A3E0FBEA3395E0F9F81202B77B0A7A00A0
:100590007900780012016AE53DFBE4FAF9F81202ED
:1005A00034D0E02FF5378034AF3BAE3AAD39AC38BC
:1005B0007B0A7A0079007800120234900010E0FA89
:1005C000A3E0FBEA3395E0F9F81202B7E53D75F0D8
:1005D0000A84FBE4FAF9F81202348F37900010E035
:1005E000FEA3E075F00AA4CEAFF075F00AA42FCEFA
:1005F000FFEE3395E0FDFCAB3BAA3AA939A838746D
:100600000E12027D705A900012E0FEA3E075F00A0F
:10061000A4CEAFF075F00AA42FCEFFEE3395E0FD27
:10062000FCAB3BAA3AA939A838740212027D70309B
:10063000AF3712E4E38F36E5372407F534E53C7530
:10064000F00884F4042406F535AF3612E49D9000DA
:10065000FFE024C5F582E43400F583E537F080102F
:100660009000FFE024C5F582E43400F58374C8F0FF
:1006700080109000FFE024C5F582E43400F5837417
:10068000C8F09000FFE0C3940750089000FFE0041A
:10069000F080059000FFE4F0228F458E44E546246B
:1006A000FFFFE434FFFED3EF9545EE95444024E58B
:1006B0004624FFFFE434FFFEEFC39545FFEE95446B
:1006C000FEC3E49FFFE49ECF2442F545EF3454F58A
:1006D000448014E54624FFFFE434FFFEC3E5459F54
:1006E000F545E5449EF544754300E543C395465002
:1006F00054AF45E544FEE4FDFC7B067A00790078C2
:100700000012016A7B767A06790078001202A7123D
:10071000AE8E8E418F420545E54570020544AE44DC
:1007200064427003EE64547005E4F544F545854376
:100730003C85473DAF42E541FE3395E0FDFC12E5C7
:1007400028054380A5228F4F8E4E8D4D8C4CD25262
:10075000753F077540077D027E137FA512A91DAF67
:100760004FAE4EAD4DAC4C7B007A7D790078007475
:100770000512027D701B75450B754607900058E009
:100780002410F547AF4FAE4EAD4DAC4C1262888091
:100790000F753F097540077D027E137FA812A91DC2
:1007A000C252900010E0FEA3E075F00AA4CEAFF0B4
:1007B00075F00AA42FCEFFEE3395E0FDFCAB4FAAF7
:1007C0004EA94DA84C740E12027D702D900012E0BF
:1007D000FEA3E075F00AA4CEAFF075F00AA42FCE08
:1007E000FFEE3395E0FDFCAB4FAA4EA94DA84C742B
:1007F0000A12027D600302E87C753900753A7F7544
:100800003B067F0712E3D29000FFE4F0AF4FAE4EFD
:10081000AD4DAC4CFB7A7DF9F8740512027D700A7F
:10082000855133AF4FAE4E124EDFD312E3FCE5508D
:10083000643860257F0A12B0669000CFEEF0A3EF17
:10084000F0E55004F5469000D5E0F5479000CFE084
:10085000FEA3E0FF12E69980217F0A12B0669000A5
:10086000CFEEF0A3EFF08550469000D5E0F547902D
:1008700000CFE0FEA3E0FF12E6998065E550C39447
:1008800038501385503C85513DAF4FAE4EAD4DAC09
:100890004C12E528804B753900753A7F753B067F11
:1008A0000712E3D2D312E3FC9000FFE4F07F0A12B8
:1008B000B0669000CFEEF0A3EFF09000CDE0FF74B3
:1008C00038C39FF5469000D5E0F5479000CFE0FE95
:1008D000A3E0FF12E6997534007535067F0712A272
:1008E0003C2220060122AF68120713EA1E06EA8E98
:1008F0000EEAB510EAE211EB9D12ECB913E90A52C7
:10090000E9CB54E9935E0000ED18122ACE753F0240
:100910007540027D027E137FB012A91D753F0275DE
:1009200040037D027E137FB912A91D9000D5E0C35C
:10093000940A402175450D754603900058E014F562
:1009400047C2039000D5E075F00A84FFE4FEFDFC89
:100950001263FC801F900057E0240BF54575460399
:10096000900058E0F547C2039000D5E0FFE4FEFD9B
:10097000FC1263FC753A12753B039000DCE0FF1239
:10098000A600753A13753B039000DDE0FF12A60048
:1009900002ED18122ACE753F027540037D027E13C8
:1009A0007FC012A91D305311753F027540047D02AE
:1009B0007E137FCD12A91D800F753F027540047D07
:1009C000027E137FDC12A91D02ED18122ACE753F9C
:1009D000027540027D027E137FEB12A91D753A0855
:1009E000753B027FF512A600753A09753B027FF44C
:1009F00012A600753A0A753B027F3A12A6007545A9
:100A00000C754602754720C2039000CDE02401FF1B
:100A1000E433FE3395E0FDFC1263FC02ED18753FF4
:100A2000017540017D027E137FF112A91D7899E6C0
:100A3000603B754511754601754720C2037899E6FC
:100A4000FFE4FEFDFC1263FC302711753F01754089
:100A5000027D027E147F0212A91D800F753F017571
:100A600040027D027E147F1412A91D801E753F1165
:100A70007540017D027E147F2612A91D753F027507
:100A800040027D027E147F2912A91D02ED18753FD8
:100A9000017540047D027E147F3A12A91D7545122E
:100AA000754604754720C203E50BFFE4FEFDFC120A
:100AB00063FC02ED07753F047540047D027E147FE0
:100AC0004C12A91D754511754604754720C203E5F2
:100AD0000C2401FFE433FE3395E0FDFC1263FC02BD
:100AE000ED07753F027540037D027E147F5812A901
:100AF0001D753A0D753B077FF212A600753A0E750B
:100B00003B077FF312A600753A0D753B067F2D1249
:100B1000A600753A0E753B067FF412A600753A0DD5
:100B2000753B057FF212A600753A0E753B057FF402
:100B300012A600753F0D7540047D027E147F62127F
:100B4000A91D753A0D753B037F2D12A600753A0E4F
:100B5000753B037F2D12A600E50D6007E50DC394DC
:100B6000064003750D01754801E548C39406502AF7
:100B7000E548650D7011753A0C7408C39548F53B4E
:100B80007FF412A600800F753A0C7408C39548F5DF
:100B90003B7F2012A600054880CF02ED07788E86A5
:100BA0004908864AD3E54A9400E549648094805018
:100BB00006754900754A01E50D146006E50D6403EC
:100BC000704C753F027540047D027E147F6612A949
:100BD0001D75450C754604900058E014F547C20396
:100BE000AF4AE549FE3395E0FDFC1263FC9000DB63
:100BF000E0600D753A11753B047FFA12A600800B78
:100C0000753A11753B047FF812A60002ECB7E50DAA
:100C10006402706D753F027540047D027E147F6F23
:100C200012A91D75450C754604754720C203AF4ACD
:100C3000AE497B3C7A001200FDEE3395E0FDFC12DC
:100C400063FC753F0E7540047D027E147F7612A909
:100C50001D754510754604754720C203AF4AAE495D
:100C60007B3C7A00120127EE3395E0FDFC1263FC19
:100C7000753F127540047D027E147F7912A91D8094
:100C800036753F027540037D027E147F7B12A91DDD
:100C9000753F027540047D027E147F8612A91D7582
:100CA000450C754604754730C203AF4AE549FE332B
:100CB00095E0FDFC1263FC804E788E864908864ADA
:100CC000753F017540047D027EF27F2C12A91D75CF
:100CD000450D754604900058E014F547C203AF4A2D
:100CE000E549FE3395E0FDFC1263FC753A12753B55
:100CF000049000DCE0FF12A600753A13753B0490E7
:100D000000DDE0FF12A600753F047540007D027E05
:100D1000147F9112A91D8000C206227F587E007D9B
:100D2000007C0012AD75900100E06F70267F597E47
:100D3000007D007C0012AD75900101E06F70147FA2
:100D40005A7E007D007C0012AD75900102E06F704C
:100D500002D322900100E064917012900101E064DE
:100D600082700A900102E064807002D322C3229054
:100D700001027435F0900101F0900100F09000D173
:100D8000E4F02212ED1B5008900052E0F568800359
:100D900075680212ED6F12A04F2220100612ED832B
:100DA00002EE0F2011119000D1E004F064037005F1
:100DB0009000D1E4F080589000D1E02400F582E466
:100DC0003401F583E0F54720131AE54764397005CF
:100DD000754780800DE547649F7005754730800238
:100DE0000547801B201218E5476480700575473958
:100DF000800DE5476430700575479F800215479068
:100E000000D1E02400F582E43401F583E547F022C7
:100E1000C254C25422C254C254C254C254C25422F4
:100E200012EE1512EE1512EE1512EE1512EE10223C
:100E3000C2AF9000EFE4F0A241B34002C291A242DF
:100E4000B34002C292A243B34002C28212EE10909B
:100E500000EF7401F0A2415002D291A2425002D29E
:100E600092A2435002D282D2AF12EE2012EE102292
:100E70009000EFE4F0A241B34002C291A242B3401D
:100E800002C292A243B34002C28212EE2012EE15B9
:100E90009000EF7401F0A2415002D291A2425002A0
:100EA000D292A2435002D282228F32753100E531B4
:100EB000C394085018E5325401600512EE308003E7
:100EC00012EE70E532C313F532053180E19000EF88
:100ED0007401F0A2415002D291A2425002D292A2D9
:100EE000435002D282228F378E368D35AB37AA36E9
:100EF000A935120804242AF582E434FFF583E4932B
:100F00005408600A0537E5377002053680DEAB37D6
:100F1000AA36A935120804642D70107533FF753494
:100F2000FF0537E53770020536801B7533007534D1
:100F300001AB37AA36A935120804642B70080537AF
:100F4000E53770020536E4F531F532AB37AA36A93C
:100F500035120804242AF582E434FFF583E493541F
:100F6000046034A935AA360537E537700205361412
:100F7000FB1208047E00E532AA3175F00AA4CAAB60
:100F8000F075F00AA42BCA2FFFEE3ACF24D0F53229
:100F9000EF34FFF53180B4AF34AE33AB32AA311247
:100FA00000E82208049580288A29202000958A28B4
:100FB0004C292020008F8F285329202000868A2842
:100FC0004A292020008C8A2892292020008F8F28EF
:100FD00052292020008F902882312920008F9028CC
:100FE00082322920008D8D284E2920200082902DCC
:100FF000803120200082902D803220200082902D90
:00000001FF
