:100000000C9426010C9443010C9443010C9443017D
:100010000C9443010C9443010C9443010C94430150
:100020000C9443010C9443010C9443010C94430140
:100030000C9443010C9443010C9443010C94430130
:100040000C9443010C9443010C9443010C94430120
:100050000C9443010C9443010C9443010C94430110
:100060000C9443010C9443010C9443010C94430100
:10007000000000000000005F000000030003001407
:100080003E143E14242A7F2A1243330866613649FF
:100090005522500005030000001C224100004122AF
:1000A0001C0014083E081408083E080800503000E0
:1000B000000808080808006060000020100804021A
:1000C0003E5149453E0004027F00426151494622AB
:1000D000414949361814127F1027454545393E4994
:1000E00049493201017109073649494936264949CA
:1000F000493E003636000000563600000814224102
:1001000000141414141400412214080201510906A9
:100110003E4159555E7E0909097E7F494949363E6F
:10012000414141227F4141413E7F494949417F0947
:100130000909013E4141493A7F0808087F00417F93
:100140004100304040403F7F081422417F40404002
:10015000407F020C027F7F0204087F3E4141413E06
:100160007F090909061E2121215E7F0909097626DA
:100170004949493201017F01013F4040403F1F2072
:1001800040201F7F2010207F41221C224107087041
:1001900008076151494543007F41000002040810EF
:1001A000200000417F000402010204404040404022
:1001B000000102040020545454787F4444443838E9
:1001C00044444444384444447F3854545418040448
:1001D0007E0505085454543C7F0804047800447D8F
:1001E00040002040443D007F1028440000417F40F3
:1001F000007C047804787C0804047838444444384B
:100200007C14141408081414147C007C080404489A
:100210005454542004043F44443C4040207C1C205F
:1002200040201C3C4030403C44281028440C505096
:10023000503C4464544C44000836414100007F0067
:1002400000414136080002010204020011241FBED1
:10025000CFEFD4E0DEBFCDBF11E0A0E0B1E0EAE92E
:10026000F7E002C005900D92A831B107D9F711E06F
:10027000A8E1B1E001C01D92AE31B107E1F70E94E3
:1002800045010C94CB030C940000AF92BF92CF9227
:10029000DF92EF92FF920F931F93CF93DF930E9411
:1002A000B40280E06BE00E941B0380E091E00E94BA
:1002B000950382E06BE00E941B038BE091E00E94BB
:1002C000950383E06BE00E941B0381E191E00E94B3
:1002D0009503EE24FE2CAA24BB2465010E2D1DC01F
:1002E000CE0168E070E00E94A4038430910534F4EC
:1002F000802F612F41E00E94DC0205C0802F612F1A
:100300004F2D0E94DC021F5F2196103449F70F5FCA
:100310000894C11CD11C003419F0E6011F2DE0CF58
:100320000894A11CB11C88E0A816B104B1F6D3CF83
:10033000EBE3F0E090819D7F90839FEF94BB882357
:1003400041F08081806180838081877F808380818C
:1003500009C0EBE3F0E080818860808380818F7E3C
:1003600080838081662339F0EBE3F0E08081816057
:100370008083808106C0EBE3F0E080818E7F808304
:10038000808148BB81E000008F5F8930E1F7EBE3BB
:10039000F0E08081846080830000000082E0809330
:1003A000180180818B7F8083089514BAEBE3F0E01D
:1003B000908192609083882341F080818061808366
:1003C0008081877F8083808109C0EBE3F0E08081BA
:1003D0008860808380818F7E80838081662339F06E
:1003E000EBE3F0E0808181608083808106C0EBE3F5
:1003F000F0E080818E7F8083808181E000008F5FCC
:100400008930E1F7EBE3F0E08081846080830000D5
:10041000000082E08093180186B390819B7F9083D7
:1004200008951F93182F812F60E00E94D5018079D5
:10043000D1F71F9108951F93182F0E949801812FC3
:100440000E9411021F9108951F93109117011F3FE1
:10045000C9F040911A014F734064812F60E00E94FF
:100460001B02409119014770486B812F60E00E9488
:100470001B02812F61E040911B010E941B028FEF44
:10048000809317011F910895FF920F931F93182FC8
:10049000062FF42E80911701811741F480911901E4
:1004A000861721F480911A01841701F10E94240219
:1004B00000931901F0921A01109317014F2D4F73F9
:1004C0004064812F60E00E941B020770402F486B40
:1004D000812F60E00E941B02812F61E00E94D50104
:1004E000812F61E00E94D50180931B011F910F9124
:1004F000FF9008950F931F9300E080E060E040E4D8
:100500000E941B02402F4770486B80E060E00E9411
:100510001B0210E080E061E040E00E941B021F5FD0
:100520001034C1F70F5F083041F700E081E060E070
:1005300040E40E941B02402F4770486B81E060E05E
:100540000E941B0210E081E061E040E00E941B027B
:100550001F5F1034C1F70F5F083041F78FEF8093B2
:1005600017011F910F91089514BA8FEF8ABBEBE327
:10057000F0E08081887D808380818861808380E055
:100580000E94110281E00E94110280E060E04FE3CE
:100590000E941B0281E060E04FE30E941B0280E0AA
:1005A00060E040EC0E941B0281E060E040EC0E94B1
:1005B0001B020E947A0208950F931F93042F162F97
:1005C0001770282F30E00024220F331F001C220F49
:1005D000331F001C232F302D70E06F7370707595E2
:1005E00067957595679575956795482F4F73822F19
:1005F00081700E944402002369F081E090E002C013
:10060000880F991F1A95E2F710911B01182B109370
:100610001B010EC081E090E002C0880F991F1A955F
:10062000E2F7182F109580911B01182310931B01DE
:100630001F910F910895962F990F690F660F609380
:100640001C01880F880F880F80931D0108954F9219
:100650005F926F927F929F92AF92BF92CF92DF9202
:10066000EF92FF920F931F93CF93DF93803208F4A2
:1006700080E2813808F080E895E0899FC00111246C
:100680000F2EF0ED6F2EFFEF7F2EF02D680E791EEE
:1006900090901C01F0901D01CC24DD2444245524AD
:1006A000AA24BB24A394F301EC0DFD1DE4901C2DA2
:1006B0000C2D090DE201153080F46C2FC73068F461
:1006C0006F0DA5010C2E02C0440F551F0A94E2F7CE
:1006D0004E21802F0E94DC0207C0CE018F0D682FB3
:1006E000802F40E00E94DC022196C830D10519F726
:1006F0000894C11CD11C96E0C916D104A1F6892D1D
:100700008A5F80931C010E942402DF91CF911F9188
:100710000F91FF90EF90DF90CF90BF90AF909F90A0
:100720007F906F905F904F900895CF93DF93EC018F
:100730008881882331F021960E94270388818823AD
:10074000D1F7DF91CF91089597FB092E07260AD0A4
:1007500077FD04D00CD006D000201AF47095619576
:100760007F4F0895F6F7909581959F4F0895AA1BA6
:10077000BB1B51E107C0AA1FBB1FA617B70710F08C
:10078000A61BB70B881F991F5A95A9F780959095BE
:0A079000BC01CD010895F894FFCFDD
:10079A00313238783634204C43440048454C4C4F6B
:0807AA0000574F524C4400FFC0
:00000001FF
